{
  "contractName": "Election",
  "abi": [
    {
      "inputs": [],
      "stateMutability": "nonpayable",
      "type": "constructor"
    },
    {
      "anonymous": false,
      "inputs": [
        {
          "indexed": false,
          "internalType": "uint256",
          "name": "id",
          "type": "uint256"
        },
        {
          "indexed": false,
          "internalType": "string",
          "name": "name",
          "type": "string"
        },
        {
          "indexed": false,
          "internalType": "uint256",
          "name": "voteCount",
          "type": "uint256"
        }
      ],
      "name": "hasVoted",
      "type": "event"
    },
    {
      "inputs": [
        {
          "internalType": "uint256",
          "name": "",
          "type": "uint256"
        }
      ],
      "name": "candidateArray",
      "outputs": [
        {
          "internalType": "uint256",
          "name": "id",
          "type": "uint256"
        },
        {
          "internalType": "string",
          "name": "name",
          "type": "string"
        },
        {
          "internalType": "uint256",
          "name": "voteCount",
          "type": "uint256"
        }
      ],
      "stateMutability": "view",
      "type": "function",
      "constant": true
    },
    {
      "inputs": [],
      "name": "candidateCount",
      "outputs": [
        {
          "internalType": "uint256",
          "name": "",
          "type": "uint256"
        }
      ],
      "stateMutability": "view",
      "type": "function",
      "constant": true
    },
    {
      "inputs": [
        {
          "internalType": "address",
          "name": "",
          "type": "address"
        }
      ],
      "name": "votedOrNot",
      "outputs": [
        {
          "internalType": "bool",
          "name": "",
          "type": "bool"
        }
      ],
      "stateMutability": "view",
      "type": "function",
      "constant": true
    },
    {
      "inputs": [
        {
          "internalType": "uint256",
          "name": "_id",
          "type": "uint256"
        }
      ],
      "name": "castVote",
      "outputs": [],
      "stateMutability": "nonpayable",
      "type": "function"
    }
  ],
  "bytecode": "0x608060405234801561001057600080fd5b506100556040518060400160405280600681526020017f52616368656c000000000000000000000000000000000000000000000000000081525061009e60201b60201c565b6100996040518060400160405280600581526020017f4a616d657300000000000000000000000000000000000000000000000000000081525061009e60201b60201c565b6101b5565b60008081548092919060010191905055506040518060600160405280600054815260200182815260200160008152506001600080548152602001908152602001600020600082015181600001556020820151816001019080519060200190610107929190610118565b506040820151816002015590505050565b828054600181600116156101000203166002900490600052602060002090601f016020900481019282601f1061015957805160ff1916838001178555610187565b82800160010185558215610187579182015b8281111561018657825182559160200191906001019061016b565b5b5090506101949190610198565b5090565b5b808211156101b1576000816000905550600101610199565b5090565b61058d806101c46000396000f3fe608060405234801561001057600080fd5b506004361061004c5760003560e01c806335a893a1146100515780633eb76b9c14610106578063a9a981a314610134578063ca020d1414610152575b600080fd5b61007d6004803603602081101561006757600080fd5b81019080803590602001909291905050506101ac565b6040518084815260200180602001838152602001828103825284818151815260200191508051906020019080838360005b838110156100c95780820151818401526020810190506100ae565b50505050905090810190601f1680156100f65780820380516001836020036101000a031916815260200191505b5094505050505060405180910390f35b6101326004803603602081101561011c57600080fd5b810190808035906020019092919050505061026e565b005b61013c61050a565b6040518082815260200191505060405180910390f35b6101946004803603602081101561016857600080fd5b81019080803573ffffffffffffffffffffffffffffffffffffffff169060200190929190505050610510565b60405180821515815260200191505060405180910390f35b6001602052806000526040600020600091509050806000015490806001018054600181600116156101000203166002900480601f01602080910402602001604051908101604052809291908181526020018280546001816001161561010002031660029004801561025e5780601f106102335761010080835404028352916020019161025e565b820191906000526020600020905b81548152906001019060200180831161024157829003601f168201915b5050505050908060020154905083565b600260003373ffffffffffffffffffffffffffffffffffffffff1673ffffffffffffffffffffffffffffffffffffffff16815260200190815260200160002060009054906101000a900460ff161561032e576040517f08c379a00000000000000000000000000000000000000000000000000000000081526004018080602001828103825260168152602001807f596f752063616e20766f7465206f6e6c79206f6e63650000000000000000000081525060200191505060405180910390fd5b60008111801561034057506000548111155b610395576040517f08c379a00000000000000000000000000000000000000000000000000000000081526004018080602001828103825260278152602001806105316027913960400191505060405180910390fd5b60016000828152602001908152602001600020600201600081548092919060010191905055506001600260003373ffffffffffffffffffffffffffffffffffffffff1673ffffffffffffffffffffffffffffffffffffffff16815260200190815260200160002060006101000a81548160ff0219169083151502179055507fbe59f76923bfe6b23abd93fa99c640829b2704250cc509cb30dda7377d5920218160016000848152602001908152602001600020600101600160008581526020019081526020016000206002015460405180848152602001806020018381526020018281038252848181546001816001161561010002031660029004815260200191508054600181600116156101000203166002900480156104f75780601f106104cc576101008083540402835291602001916104f7565b820191906000526020600020905b8154815290600101906020018083116104da57829003601f168201915b505094505050505060405180910390a150565b60005481565b60026020528060005260406000206000915054906101000a900460ff168156fe5468652073656c65637465642043616e646964617465206973206e6f7420617661696c61626c65a2646970667358221220ba23aca38855054fa93b8621741f94d9157bfb203c2a3085960a293d7397dc7c64736f6c63430007000033",
  "immutableReferences": {},
  "source": "// SPDX-License-Identifier: MIT\r\n\r\npragma solidity ^0.7.0;\r\n\r\ncontract Election{\r\n    \r\n    //struct candidate\r\n    struct Candidate{\r\n        uint id; //Candidate id\r\n        string name;\r\n        uint voteCount; //votes won by the candidate \r\n    }\r\n    \r\n    //candidate count \r\n    uint public candidateCount;\r\n    \r\n    // map candidate info with their IDs\r\n    mapping(uint => Candidate) public candidateArray;\r\n    \r\n    // map to check if person has voted or not\r\n    mapping(address => bool) public votedOrNot;\r\n    \r\n    //update ui event\r\n    event hasVoted(\r\n        uint id,\r\n        string name,\r\n        uint voteCount);\r\n    \r\n    constructor(){\r\n        //aading candidates\r\n        addCandidate(\"Rachel\");\r\n        addCandidate(\"James\");\r\n    }\r\n    \r\n    //add Candidate to Blockchain\r\n    function addCandidate(string memory name) private{\r\n        candidateCount++;\r\n        candidateArray[candidateCount] = Candidate(candidateCount,name,0);\r\n    }\r\n    \r\n    //vote Candidate\r\n    function castVote(uint _id) public {\r\n        \r\n        //check if person is not voting second time\r\n        require(!votedOrNot[msg.sender], 'You can vote only once');\r\n        \r\n        //check Candidate with selected id is valid\r\n        require(_id > 0 && _id <= candidateCount, 'The selected Candidate is not available');\r\n        \r\n        //increase vote count\r\n        candidateArray[_id].voteCount++;\r\n        \r\n        votedOrNot[msg.sender] = true;\r\n        \r\n        //emit event data\r\n        emit hasVoted(_id, candidateArray[_id].name, candidateArray[_id].voteCount);        \r\n    }\r\n    \r\n}",
  "sourcePath": "C:/Users/Abhishek Johri/Desktop/Registration/contracts/Election.sol",
  "compiler": {
    "name": "solc",
    "version": "0.7.0+commit.9e61f92b.Emscripten.clang"
  },
  "schemaVersion": "3.3.4",
  "updatedAt": "2021-03-24T17:51:11.945Z",
  "networkType": "ethereum",
  "devdoc": {
    "kind": "dev",
    "methods": {},
    "version": 1
  },
  "userdoc": {
    "kind": "user",
    "methods": {},
    "version": 1
  }
}